{
  "contractName": "BlockMarket",
  "abi": [
    {
      "constant": true,
      "inputs": [],
      "name": "userCount",
      "outputs": [
        {
          "name": "",
          "type": "uint256"
        }
      ],
      "payable": false,
      "stateMutability": "view",
      "type": "function"
    },
    {
      "constant": true,
      "inputs": [
        {
          "name": "",
          "type": "address"
        }
      ],
      "name": "contactDetails",
      "outputs": [
        {
          "name": "shippingAddress",
          "type": "string"
        },
        {
          "name": "email",
          "type": "string"
        },
        {
          "name": "phone",
          "type": "uint40"
        }
      ],
      "payable": false,
      "stateMutability": "view",
      "type": "function"
    },
    {
      "constant": true,
      "inputs": [],
      "name": "skuCount",
      "outputs": [
        {
          "name": "",
          "type": "uint256"
        }
      ],
      "payable": false,
      "stateMutability": "view",
      "type": "function"
    },
    {
      "constant": true,
      "inputs": [
        {
          "name": "",
          "type": "uint256"
        }
      ],
      "name": "prospectiveMerchants",
      "outputs": [
        {
          "name": "prospectAddress",
          "type": "address"
        },
        {
          "name": "userID",
          "type": "uint256"
        },
        {
          "name": "name",
          "type": "string"
        }
      ],
      "payable": false,
      "stateMutability": "view",
      "type": "function"
    },
    {
      "constant": true,
      "inputs": [
        {
          "name": "",
          "type": "address"
        },
        {
          "name": "",
          "type": "uint256"
        }
      ],
      "name": "orders",
      "outputs": [
        {
          "name": "orderID",
          "type": "uint256"
        },
        {
          "name": "sku",
          "type": "uint256"
        },
        {
          "name": "storeID",
          "type": "uint256"
        },
        {
          "name": "buyer",
          "type": "address"
        },
        {
          "name": "seller",
          "type": "address"
        },
        {
          "name": "quantity",
          "type": "uint256"
        },
        {
          "name": "totalPrice",
          "type": "uint256"
        },
        {
          "name": "timeStamp",
          "type": "uint256"
        }
      ],
      "payable": false,
      "stateMutability": "view",
      "type": "function"
    },
    {
      "constant": true,
      "inputs": [
        {
          "name": "",
          "type": "uint256"
        }
      ],
      "name": "products",
      "outputs": [
        {
          "name": "sku",
          "type": "uint256"
        },
        {
          "name": "storeID",
          "type": "uint256"
        },
        {
          "name": "title",
          "type": "string"
        },
        {
          "name": "description",
          "type": "string"
        },
        {
          "name": "price",
          "type": "uint256"
        },
        {
          "name": "shippingPrice",
          "type": "uint256"
        },
        {
          "name": "image",
          "type": "string"
        },
        {
          "name": "stock",
          "type": "uint16"
        }
      ],
      "payable": false,
      "stateMutability": "view",
      "type": "function"
    },
    {
      "constant": true,
      "inputs": [],
      "name": "storeCount",
      "outputs": [
        {
          "name": "",
          "type": "uint256"
        }
      ],
      "payable": false,
      "stateMutability": "view",
      "type": "function"
    },
    {
      "constant": true,
      "inputs": [
        {
          "name": "",
          "type": "address"
        }
      ],
      "name": "users",
      "outputs": [
        {
          "name": "userID",
          "type": "uint256"
        },
        {
          "name": "name",
          "type": "string"
        },
        {
          "name": "role",
          "type": "uint8"
        },
        {
          "name": "balance",
          "type": "uint256"
        },
        {
          "name": "orderCount",
          "type": "uint256"
        }
      ],
      "payable": false,
      "stateMutability": "view",
      "type": "function"
    },
    {
      "constant": true,
      "inputs": [],
      "name": "adminInitialized",
      "outputs": [
        {
          "name": "",
          "type": "bool"
        }
      ],
      "payable": false,
      "stateMutability": "view",
      "type": "function"
    },
    {
      "constant": true,
      "inputs": [
        {
          "name": "",
          "type": "address"
        },
        {
          "name": "",
          "type": "uint256"
        }
      ],
      "name": "storeRegistry",
      "outputs": [
        {
          "name": "",
          "type": "uint256"
        }
      ],
      "payable": false,
      "stateMutability": "view",
      "type": "function"
    },
    {
      "constant": true,
      "inputs": [
        {
          "name": "",
          "type": "uint256"
        },
        {
          "name": "",
          "type": "uint256"
        }
      ],
      "name": "productRegistry",
      "outputs": [
        {
          "name": "",
          "type": "uint256"
        }
      ],
      "payable": false,
      "stateMutability": "view",
      "type": "function"
    },
    {
      "constant": true,
      "inputs": [
        {
          "name": "",
          "type": "uint256"
        }
      ],
      "name": "stores",
      "outputs": [
        {
          "name": "storeID",
          "type": "uint256"
        },
        {
          "name": "owner",
          "type": "address"
        },
        {
          "name": "title",
          "type": "string"
        },
        {
          "name": "description",
          "type": "string"
        }
      ],
      "payable": false,
      "stateMutability": "view",
      "type": "function"
    },
    {
      "inputs": [],
      "payable": false,
      "stateMutability": "nonpayable",
      "type": "constructor"
    },
    {
      "payable": true,
      "stateMutability": "payable",
      "type": "fallback"
    },
    {
      "anonymous": false,
      "inputs": [
        {
          "indexed": false,
          "name": "adminAddress",
          "type": "address"
        }
      ],
      "name": "adminSet",
      "type": "event"
    },
    {
      "anonymous": false,
      "inputs": [
        {
          "indexed": false,
          "name": "merchantAddress",
          "type": "address"
        }
      ],
      "name": "merchantApproved",
      "type": "event"
    },
    {
      "anonymous": false,
      "inputs": [
        {
          "indexed": false,
          "name": "merchantAddress",
          "type": "address"
        }
      ],
      "name": "merchantRejected",
      "type": "event"
    },
    {
      "anonymous": false,
      "inputs": [
        {
          "indexed": false,
          "name": "storeID",
          "type": "uint256"
        }
      ],
      "name": "storeOpened",
      "type": "event"
    },
    {
      "anonymous": false,
      "inputs": [
        {
          "indexed": false,
          "name": "sku",
          "type": "uint256"
        }
      ],
      "name": "productAdded",
      "type": "event"
    },
    {
      "anonymous": false,
      "inputs": [
        {
          "indexed": false,
          "name": "buyerAddress",
          "type": "address"
        },
        {
          "indexed": false,
          "name": "totalPrice",
          "type": "uint256"
        }
      ],
      "name": "orderPlaced",
      "type": "event"
    },
    {
      "anonymous": false,
      "inputs": [
        {
          "indexed": false,
          "name": "buyerAddress",
          "type": "address"
        },
        {
          "indexed": false,
          "name": "sku",
          "type": "uint256"
        }
      ],
      "name": "orderShipped",
      "type": "event"
    },
    {
      "anonymous": false,
      "inputs": [
        {
          "indexed": false,
          "name": "merchantAddress",
          "type": "address"
        },
        {
          "indexed": false,
          "name": "amount",
          "type": "uint256"
        },
        {
          "indexed": false,
          "name": "newBalance",
          "type": "uint256"
        }
      ],
      "name": "withdrawalMade",
      "type": "event"
    },
    {
      "constant": true,
      "inputs": [],
      "name": "getNumberOfProspectiveMerchants",
      "outputs": [
        {
          "name": "",
          "type": "uint256"
        }
      ],
      "payable": false,
      "stateMutability": "view",
      "type": "function"
    },
    {
      "constant": true,
      "inputs": [
        {
          "name": "_user",
          "type": "address"
        }
      ],
      "name": "getNumberOfStoresOwned",
      "outputs": [
        {
          "name": "",
          "type": "uint256"
        }
      ],
      "payable": false,
      "stateMutability": "view",
      "type": "function"
    },
    {
      "constant": true,
      "inputs": [
        {
          "name": "_user",
          "type": "address"
        }
      ],
      "name": "getNumberOfOrders",
      "outputs": [
        {
          "name": "",
          "type": "uint256"
        }
      ],
      "payable": false,
      "stateMutability": "view",
      "type": "function"
    },
    {
      "constant": false,
      "inputs": [],
      "name": "setAdmin",
      "outputs": [
        {
          "name": "",
          "type": "bool"
        }
      ],
      "payable": false,
      "stateMutability": "nonpayable",
      "type": "function"
    },
    {
      "constant": false,
      "inputs": [],
      "name": "toggleCircuitBreaker",
      "outputs": [],
      "payable": false,
      "stateMutability": "nonpayable",
      "type": "function"
    },
    {
      "constant": false,
      "inputs": [
        {
          "name": "prospectIndex",
          "type": "uint256"
        }
      ],
      "name": "approveMerchant",
      "outputs": [
        {
          "name": "",
          "type": "address"
        }
      ],
      "payable": false,
      "stateMutability": "nonpayable",
      "type": "function"
    },
    {
      "constant": false,
      "inputs": [
        {
          "name": "prospectIndex",
          "type": "uint256"
        }
      ],
      "name": "rejectMerchant",
      "outputs": [
        {
          "name": "",
          "type": "address"
        }
      ],
      "payable": false,
      "stateMutability": "nonpayable",
      "type": "function"
    },
    {
      "constant": false,
      "inputs": [
        {
          "name": "_title",
          "type": "string"
        },
        {
          "name": "_description",
          "type": "string"
        }
      ],
      "name": "openStore",
      "outputs": [
        {
          "name": "",
          "type": "uint256"
        }
      ],
      "payable": false,
      "stateMutability": "nonpayable",
      "type": "function"
    },
    {
      "constant": false,
      "inputs": [
        {
          "name": "_storeID",
          "type": "uint256"
        },
        {
          "name": "_title",
          "type": "string"
        },
        {
          "name": "_description",
          "type": "string"
        },
        {
          "name": "_price",
          "type": "uint256"
        },
        {
          "name": "_shippingPrice",
          "type": "uint256"
        },
        {
          "name": "_image",
          "type": "string"
        },
        {
          "name": "_stock",
          "type": "uint16"
        }
      ],
      "name": "addProduct",
      "outputs": [
        {
          "name": "",
          "type": "uint256"
        }
      ],
      "payable": false,
      "stateMutability": "nonpayable",
      "type": "function"
    },
    {
      "constant": false,
      "inputs": [
        {
          "name": "sku",
          "type": "uint256"
        },
        {
          "name": "_storeID",
          "type": "uint256"
        },
        {
          "name": "_title",
          "type": "string"
        },
        {
          "name": "_description",
          "type": "string"
        },
        {
          "name": "_price",
          "type": "uint256"
        },
        {
          "name": "_shippingPrice",
          "type": "uint256"
        },
        {
          "name": "_image",
          "type": "string"
        },
        {
          "name": "_stock",
          "type": "uint16"
        }
      ],
      "name": "editProduct",
      "outputs": [
        {
          "name": "",
          "type": "uint256"
        }
      ],
      "payable": false,
      "stateMutability": "nonpayable",
      "type": "function"
    },
    {
      "constant": false,
      "inputs": [
        {
          "name": "sku",
          "type": "uint256"
        }
      ],
      "name": "removeProduct",
      "outputs": [
        {
          "name": "",
          "type": "uint256"
        }
      ],
      "payable": false,
      "stateMutability": "nonpayable",
      "type": "function"
    },
    {
      "constant": false,
      "inputs": [
        {
          "name": "amount",
          "type": "uint256"
        }
      ],
      "name": "withdraw",
      "outputs": [
        {
          "name": "",
          "type": "uint256"
        }
      ],
      "payable": true,
      "stateMutability": "payable",
      "type": "function"
    },
    {
      "constant": false,
      "inputs": [
        {
          "name": "orderIndex",
          "type": "uint256"
        }
      ],
      "name": "shipOrder",
      "outputs": [
        {
          "name": "",
          "type": "uint256"
        }
      ],
      "payable": false,
      "stateMutability": "nonpayable",
      "type": "function"
    },
    {
      "constant": false,
      "inputs": [
        {
          "name": "_name",
          "type": "string"
        },
        {
          "name": "_shippingAddress",
          "type": "string"
        },
        {
          "name": "_email",
          "type": "string"
        },
        {
          "name": "_phone",
          "type": "uint40"
        }
      ],
      "name": "registerAsShopper",
      "outputs": [
        {
          "name": "",
          "type": "bool"
        }
      ],
      "payable": false,
      "stateMutability": "nonpayable",
      "type": "function"
    },
    {
      "constant": false,
      "inputs": [
        {
          "name": "_shippingAddress",
          "type": "string"
        },
        {
          "name": "_email",
          "type": "string"
        },
        {
          "name": "_phone",
          "type": "uint40"
        }
      ],
      "name": "updateContactDetail",
      "outputs": [
        {
          "name": "",
          "type": "address"
        }
      ],
      "payable": false,
      "stateMutability": "nonpayable",
      "type": "function"
    },
    {
      "constant": false,
      "inputs": [
        {
          "name": "_name",
          "type": "string"
        }
      ],
      "name": "requestToBeMerchant",
      "outputs": [
        {
          "name": "",
          "type": "bool"
        }
      ],
      "payable": false,
      "stateMutability": "nonpayable",
      "type": "function"
    },
    {
      "constant": false,
      "inputs": [
        {
          "name": "_sku",
          "type": "uint256"
        },
        {
          "name": "_quantity",
          "type": "uint256"
        }
      ],
      "name": "placeOrder",
      "outputs": [
        {
          "name": "",
          "type": "address"
        },
        {
          "name": "",
          "type": "uint256"
        },
        {
          "name": "",
          "type": "address"
        }
      ],
      "payable": true,
      "stateMutability": "payable",
      "type": "function"
    }
  ],
  "bytecode": "0x60806040526000805461ffff1916905534801561001b57600080fd5b5060018080556005819055600855613813806100386000396000f3006080604052600436106101745763ffffffff7c010000000000000000000000000000000000000000000000000000000060003504166307973ccf81146101765780631482024f1461019d57806315bd105b146102b1578063194c302c146103a357806322702473146103bb5780632a078b37146103d05780632cae2096146103f15780632e1a7d4d146104065780633aba8590146104115780635ee95cae146105005780636169ebf51461051857806375f4dccc146105c8578063793b8c6d146106b55780637acc0b2014610726578063843f61e2146108ad5780639810b50e146108e6578063a1b141d41461093f578063a87430ba14610954578063bda1832414610a17578063c69ac5cf14610a2c578063c9cf3ba614610a50578063cde52a6014610a6b578063cde620b914610b27578063ce39bd6314610b3f578063d23b603b14610b54578063d5eb63cc14610beb578063e8a59cd814610c00578063ed556a1714610cd6578063f6bad71b14610cee575b005b34801561018257600080fd5b5061018b610d0f565b60408051918252519081900360200190f35b3480156101a957600080fd5b506101be600160a060020a0360043516610d15565b6040518080602001806020018464ffffffffff1664ffffffffff168152602001838103835286818151815260200191508051906020019080838360005b838110156102135781810151838201526020016101fb565b50505050905090810190601f1680156102405780820380516001836020036101000a031916815260200191505b50838103825285518152855160209182019187019080838360005b8381101561027357818101518382015260200161025b565b50505050905090810190601f1680156102a05780820380516001836020036101000a031916815260200191505b509550505050505060405180910390f35b3480156102bd57600080fd5b506040805160206004803580820135601f810184900484028501840190955284845261038f94369492936024939284019190819084018382808284375050604080516020601f89358b018035918201839004830284018301909452808352979a99988101979196509182019450925082915084018382808284375050604080516020601f89358b018035918201839004830284018301909452808352979a9998810197919650918201945092508291508401838280828437509497505050923564ffffffffff169350610e6192505050565b604080519115158252519081900360200190f35b3480156103af57600080fd5b5061018b600435610f89565b3480156103c757600080fd5b5061018b611229565b3480156103dc57600080fd5b5061018b600160a060020a036004351661122f565b3480156103fd57600080fd5b5061038f61124a565b61018b6004356113bc565b34801561041d57600080fd5b50604080516020600460443581810135601f810184900484028501840190955284845261018b94823594602480359536959460649492019190819084018382808284375050604080516020601f89358b018035918201839004830284018301909452808352979a99988101979196509182019450925082915084018382808284375050604080516020888301358a018035601f8101839004830284018301909452838352979a89359a8a8301359a919990985060609091019650919450908101925081908401838280828437509497505050923561ffff1693506115fb92505050565b34801561050c57600080fd5b5061018b6004356118ea565b34801561052457600080fd5b50610530600435611ada565b6040518084600160a060020a0316600160a060020a0316815260200183815260200180602001828103825283818151815260200191508051906020019080838360005b8381101561058b578181015183820152602001610573565b50505050905090810190601f1680156105b85780820380516001836020036101000a031916815260200191505b5094505050505060405180910390f35b3480156105d457600080fd5b5060408051602060046024803582810135601f810185900485028601850190965285855261018b95833595369560449491939091019190819084018382808284375050604080516020601f89358b018035918201839004830284018301909452808352979a99988101979196509182019450925082915084018382808284375050604080516020888301358a018035601f8101839004830284018301909452838352979a89359a8a8301359a919990985060609091019650919450908101925081908401838280828437509497505050923561ffff169350611ba392505050565b3480156106c157600080fd5b506106d9600160a060020a0360043516602435611e0c565b60408051988952602089019790975287870195909552600160a060020a03938416606088015291909216608086015260a085019190915260c084015260e083015251908190036101000190f35b34801561073257600080fd5b5061073e600435611e7a565b604051808981526020018881526020018060200180602001878152602001868152602001806020018561ffff1661ffff16815260200184810384528a818151815260200191508051906020019080838360005b838110156107a9578181015183820152602001610791565b50505050905090810190601f1680156107d65780820380516001836020036101000a031916815260200191505b5084810383528951815289516020918201918b019080838360005b838110156108095781810151838201526020016107f1565b50505050905090810190601f1680156108365780820380516001836020036101000a031916815260200191505b50848103825286518152865160209182019188019080838360005b83811015610869578181015183820152602001610851565b50505050905090810190601f1680156108965780820380516001836020036101000a031916815260200191505b509b50505050505050505050505060405180910390f35b6108bb600435602435612067565b60408051600160a060020a039485168152602081019390935292168183015290519081900360600190f35b3480156108f257600080fd5b506040805160206004803580820135601f810184900484028501840190955284845261038f9436949293602493928401919081908401838280828437509497506124dd9650505050505050565b34801561094b57600080fd5b5061018b612814565b34801561096057600080fd5b50610975600160a060020a036004351661281a565b604051808681526020018060200185600281111561098f57fe5b60ff168152602001848152602001838152602001828103825286818151815260200191508051906020019080838360005b838110156109d85781810151838201526020016109c0565b50505050905090810190601f168015610a055780820380516001836020036101000a031916815260200191505b50965050505050505060405180910390f35b348015610a2357600080fd5b5061038f6128d7565b348015610a3857600080fd5b5061018b600160a060020a03600435166024356128e5565b348015610a5c57600080fd5b5061018b600435602435612915565b348015610a7757600080fd5b506040805160206004803580820135601f8101849004840285018401909552848452610b0b94369492936024939284019190819084018382808284375050604080516020601f89358b018035918201839004830284018301909452808352979a9998810197919650918201945092508291508401838280828437509497505050923564ffffffffff16935061293092505050565b60408051600160a060020a039092168252519081900360200190f35b348015610b3357600080fd5b50610b0b600435612a1a565b348015610b4b57600080fd5b5061018b612cd4565b348015610b6057600080fd5b506040805160206004803580820135601f810184900484028501840190955284845261018b94369492936024939284019190819084018382808284375050604080516020601f89358b018035918201839004830284018301909452808352979a999881019791965091820194509250829150840183828082843750949750612cdb9650505050505050565b348015610bf757600080fd5b50610174612f3b565b348015610c0c57600080fd5b50610c18600435612fec565b6040518085815260200184600160a060020a0316600160a060020a031681526020018060200180602001838103835285818151815260200191508051906020019080838360005b83811015610c77578181015183820152602001610c5f565b50505050905090810190601f168015610ca45780820380516001836020036101000a031916815260200191505b5083810382528451815284516020918201918601908083836000838110156109d85781810151838201526020016109c0565b348015610ce257600080fd5b50610b0b600435613145565b348015610cfa57600080fd5b5061018b600160a060020a03600435166133f1565b60015481565b60046020908152600091825260409182902080548351601f60026000196101006001861615020190931692909204918201849004840281018401909452808452909291839190830182828015610dac5780601f10610d8157610100808354040283529160200191610dac565b820191906000526020600020905b815481529060010190602001808311610d8f57829003601f168201915b505050505090806001018054600181600116156101000203166002900480601f016020809104026020016040519081016040528092919081815260200182805460018160011615610100020316600290048015610e4a5780601f10610e1f57610100808354040283529160200191610e4a565b820191906000526020600020905b815481529060010190602001808311610e2d57829003601f168201915b5050506002909301549192505064ffffffffff1683565b6000610e6b613471565b60005460ff1615610ec8576040805160e560020a62461bcd02815260206004820152602b60248201526000805160206137c883398151915260448201526000805160206137a8833981519152606482015290519081900360840190fd5b336000908152600260205260409020541515610f7157600180548252602080830188815260026040808601829052600060608701819052608087018190523381529184529020845181559051805185949293610f289385019201906134a0565b5060408201518160020160006101000a81548160ff02191690836002811115610f4d57fe5b02179055506060820151600382015560809091015160049091015560018054810190555b610f7c858585612930565b5060019695505050505050565b600080548190819060ff1615610feb576040805160e560020a62461bcd02815260206004820152602b60248201526000805160206137c883398151915260448201526000805160206137a8833981519152606482015290519081900360840190fd5b336000908152600b6020526040902080548590811061100657fe5b60009182526020808320600890920290910154338352600b9091526040909120549092508410611080576040805160e560020a62461bcd02815260206004820152601a60248201527f54686973206f7264657220646f6573206e6f742065786973742e000000000000604482015290519081900360640190fd5b50825b336000908152600b60205260409020546000190181101561118157336000908152600b602052604090208054600186019081106110bc57fe5b60009182526020808320338452600b9091526040909220805460089092029092019190869081106110e957fe5b60009182526020909120825460089092020190815560018083015481830155600280840154908301556003808401549083018054600160a060020a0392831673ffffffffffffffffffffffffffffffffffffffff199182161790915560048086015490850180549190931691161790556005808401549083015560068084015490830155600792830154929091019190915501611083565b336000908152600b60205260409020805460001981019081106111a057fe5b600091825260208083206008909202909101828155600181018390556002810183905560038101805473ffffffffffffffffffffffffffffffffffffffff1990811690915560048201805490911690556005810183905560068101839055600701829055338252600b90526040902080549061122090600019830161351a565b50909392505050565b60085481565b600160a060020a03166000908152600b602052604090205490565b6000611254613471565b60018054146112ad576040805160e560020a62461bcd02815260206004820152601660248201527f54686572652063616e206265206f6e6c79206f6e652100000000000000000000604482015290519081900360640190fd5b600180548252604080518082018252601981527f426c6f636b4d61726b65742041646d696e6973747261746f720000000000000060208083019190915280850191825260008386018190526060860181905260808601819052338152600282529290922084518155905180518594929361132b9385019201906134a0565b5060408201518160020160006101000a81548160ff0219169083600281111561135057fe5b0217905550606082015160038201556080909101516004909101556000805461ff0019166101001790556040805133815290517ff4dff04163927a039789d6593b0d277d04da79f99743c62020687d7b04df5a2b9181900360200190a1600180548101815591505b5090565b6000805460ff161561141a576040805160e560020a62461bcd02815260206004820152602b60248201526000805160206137c883398151915260448201526000805160206137a8833981519152606482015290519081900360840190fd5b336001600160a060020a038216600090815260026020819052604090912081015460ff169081111561144857fe5b1461149d576040805160e560020a62461bcd02815260206004820152601c60248201527f546869732075736572206973206e6f742061204d65726368616e742e00000000604482015290519081900360640190fd5b33600081815260026020526040902060030154849081111561152f576040805160e560020a62461bcd02815260206004820152602860248201527f54686973207573657220646f6573206e6f742068617665207375666669656e6360448201527f742066756e64732e000000000000000000000000000000000000000000000000606482015290519081900360840190fd5b3360009081526002602052604090206003015461154c908661340c565b33600081815260026020526040808220600301939093559151909187156108fc02918891818181858888f1935050505015801561158d573d6000803e3d6000fd5b503360008181526002602090815260409182902060030154825193845290830188905282820152517f6b9856a702147fb42259e2c0f1ab89893109b63d9a842a902d4bd1375c86bba09181900360600190a15050336000908152600260205260409020600301549392505050565b6000805460ff1615611659576040805160e560020a62461bcd02815260206004820152602b60248201526000805160206137c883398151915260448201526000805160206137a8833981519152606482015290519081900360840190fd5b600089815260096020526040902054899015156116c0576040805160e560020a62461bcd02815260206004820152601c60248201527f54686973206973206e6f7420612076616c69642070726f647563742e00000000604482015290519081900360640190fd5b60008a81526009602052604090206001015460068054339291839160001984019081106116e957fe5b6000918252602090912060016004909202010154600160a060020a031614611781576040805160e560020a62461bcd02815260206004820152602160248201527f546869732075736572206973206e6f74207468652073746f7265206f776e657260448201527f2e00000000000000000000000000000000000000000000000000000000000000606482015290519081900360840190fd5b60008c815260096020526040812081815560018101829055906117a7600283018261354b565b6117b560038301600061354b565b600482016000905560058201600090556006820160006117d5919061354b565b6007820160006101000a81549061ffff02191690555050610100604051908101604052808d81526020018c81526020018b81526020018a81526020018981526020018881526020018781526020018661ffff16815250600960008e81526020019081526020016000206000820151816000015560208201518160010155604082015181600201908051906020019061186e9291906134a0565b506060820151805161188a9160038401916020909101906134a0565b506080820151600482015560a0820151600582015560c082015180516118ba9160068401916020909101906134a0565b5060e091909101516007909101805461ffff191661ffff90921691909117905550999a9950505050505050505050565b6000805460ff1615611948576040805160e560020a62461bcd02815260206004820152602b60248201526000805160206137c883398151915260448201526000805160206137a8833981519152606482015290519081900360840190fd5b600082815260096020526040902054829015156119af576040805160e560020a62461bcd02815260206004820152601c60248201527f54686973206973206e6f7420612076616c69642070726f647563742e00000000604482015290519081900360640190fd5b60008381526009602052604090206001015460068054339291839160001984019081106119d857fe5b6000918252602090912060016004909202010154600160a060020a031614611a70576040805160e560020a62461bcd02815260206004820152602160248201527f546869732075736572206973206e6f74207468652073746f7265206f776e657260448201527f2e00000000000000000000000000000000000000000000000000000000000000606482015290519081900360840190fd5b60008581526009602052604081208181556001810182905590611a96600283018261354b565b611aa460038301600061354b565b60048201600090556005820160009055600682016000611ac4919061354b565b50600701805461ffff1916905550929392505050565b6003805482908110611ae857fe5b6000918252602091829020600391909102018054600180830154600280850180546040805161010096831615969096026000190190911692909204601f8101889004880285018801909252818452600160a060020a0390941696509094919291830182828015611b995780601f10611b6e57610100808354040283529160200191611b99565b820191906000526020600020905b815481529060010190602001808311611b7c57829003601f168201915b5050505050905083565b60008054819060ff1615611c03576040805160e560020a62461bcd02815260206004820152602b60248201526000805160206137c883398151915260448201526000805160206137a8833981519152606482015290519081900360840190fd5b338933600160a060020a0316600660018303815481101515611c2157fe5b6000918252602090912060016004909202010154600160a060020a031614611cb9576040805160e560020a62461bcd02815260206004820152602160248201527f546869732075736572206973206e6f74207468652073746f7265206f776e657260448201527f2e00000000000000000000000000000000000000000000000000000000000000606482015290519081900360840190fd5b600854604080516101008101825282815260208082018f81528284018f8152606084018f9052608084018e905260a084018d905260c084018c905261ffff8b1660e0850152600086815260098452949094208351815590516001820155925180519497509193611d2f92600285019201906134a0565b5060608201518051611d4b9160038401916020909101906134a0565b506080820151600482015560a0820151600582015560c08201518051611d7b9160068401916020909101906134a0565b5060e091909101516007909101805461ffff191661ffff90921691909117905560008b8152600a60209081526040808320805460018101825590845292829020909201859055600854825190815291517f1cfe762f807f7c75a575105c833abd2ee7556073fc8baa66e6c66657f8e63e1a9281900390910190a1505060088054600101905598975050505050505050565b600b60205281600052604060002081815481101515611e2757fe5b6000918252602090912060089091020180546001820154600283015460038401546004850154600586015460068701546007909701549598509396509194600160a060020a039182169492909116929188565b60096020908152600091825260409182902080546001808301546002808501805488519481161561010002600019011691909104601f810187900487028401870190975286835292959094919291830182828015611f195780601f10611eee57610100808354040283529160200191611f19565b820191906000526020600020905b815481529060010190602001808311611efc57829003601f168201915b5050505060038301805460408051602060026001851615610100026000190190941693909304601f8101849004840282018401909252818152949594935090830182828015611fa95780601f10611f7e57610100808354040283529160200191611fa9565b820191906000526020600020905b815481529060010190602001808311611f8c57829003601f168201915b505050505090806004015490806005015490806006018054600181600116156101000203166002900480601f0160208091040260200160405190810160405280929190818152602001828054600181600116156101000203166002900480156120535780601f1061202857610100808354040283529160200191612053565b820191906000526020600020905b81548152906001019060200180831161203657829003601f168201915b5050506007909301549192505061ffff1688565b600080600080600080600061207a613592565b60005460ff16156120d7576040805160e560020a62461bcd02815260206004820152602b60248201526000805160206137c883398151915260448201526000805160206137a8833981519152606482015290519081900360840190fd5b60008a8152600960205260409020548a90151561213e576040805160e560020a62461bcd02815260206004820152601c60248201527f54686973206973206e6f7420612076616c69642070726f647563742e00000000604482015290519081900360640190fd5b60008b8152600960205260408120600701548c9161ffff909116116121ad576040805160e560020a62461bcd02815260206004820181905260248201527f54686973206974656d206973206e6f206c6f6e67657220696e2073746f636b2e604482015290519081900360640190fd5b60008c815260096020526040902060010154600680549198509060001989019081106121d557fe5b60009182526020808320600492830201600101548f84526009909152604090922090810154600590910154600160a060020a0390921697506122169161342a565b945060018b11156122325761222b858c613443565b9350612236565b8493505b604051339085156108fc029086906000818181858888f19350505050158015612263573d6000803e3d6000fd5b50600160a060020a03861660009081526002602052604090206003015461228a908561342a565b6002600088600160a060020a0316600160a060020a03168152602001908152602001600020600301819055506002600087600160a060020a0316600160a060020a03168152602001908152602001600020600401600081548092919060010191905055506002600087600160a060020a0316600160a060020a03168152602001908152602001600020600401548360000181815250508b83602001818152505086836040018181525050338360600190600160a060020a03169081600160a060020a031681525050858360800190600160a060020a03169081600160a060020a0316815250508a8360a0018181525050838360c0018181525050428360e0018181525050600b600087600160a060020a0316600160a060020a03168152602001908152602001600020839080600181540180825580915050906001820390600052602060002090600802016000909192909190915060008201518160000155602082015181600101556040820151816002015560608201518160030160006101000a815481600160a060020a030219169083600160a060020a0316021790555060808201518160040160006101000a815481600160a060020a030219169083600160a060020a0316021790555060a0820151816005015560c0820151816006015560e082015181600701555050507f0dc235fb8fc96d4e4bccd5c884a5bb1fa0e5c265181928fb9d9e808debeb1d3733856040518083600160a060020a0316600160a060020a031681526020018281526020019250505060405180910390a150339b929a50939850909650505050505050565b60006124e7613471565b6124ef6135ea565b60005460ff161561254c576040805160e560020a62461bcd02815260206004820152602b60248201526000805160206137c883398151915260448201526000805160206137a8833981519152606482015290519081900360840190fd5b3360008181526002602052604090205415806125905750600160a060020a038116600090815260026020819052604090912081015460ff168181111561258e57fe5b145b15156125e6576040805160e560020a62461bcd02815260206004820152601b60248201527f546869732075736572206973206e6f7420612053686f707065722e0000000000604482015290519081900360640190fd5b33600090815260026020526040902054151561268f576001805484526020808501878152600260408088018290526000606089018190526080890181905233815291845290208651815590518051879492936126469385019201906134a0565b5060408201518160020160006101000a81548160ff0219169083600281111561266b57fe5b02179055506060820151600382015560809091015160049091015560018054810190555b338083526000818152600260208181526040808420805483890152949093528181526001938401805484519581161561010002600019011692909204601f81018290048202850182019093528284529091908301828280156127325780601f1061270757610100808354040283529160200191612732565b820191906000526020600020905b81548152906001019060200180831161271557829003601f168201915b505050506040840191825250600380546001810180835560008390528551919092027fc2575a0e9e593c00f959f8c92f12db2869c3395a3b0502d05e2516446f71f85b81018054600160a060020a0390931673ffffffffffffffffffffffffffffffffffffffff199093169290921782556020808701517fc2575a0e9e593c00f959f8c92f12db2869c3395a3b0502d05e2516446f71f85c8301559351805193948794612805937fc2575a0e9e593c00f959f8c92f12db2869c3395a3b0502d05e2516446f71f85d0192909101906134a0565b50600198975050505050505050565b60055481565b60026020818152600092835260409283902080546001808301805487519281161561010002600019011695909504601f81018590048502820185019096528581529094919390929091908301828280156128b55780601f1061288a576101008083540402835291602001916128b5565b820191906000526020600020905b81548152906001019060200180831161289857829003601f168201915b5050505060028301546003840154600490940154929360ff9091169290915085565b600054610100900460ff1681565b60076020528160005260406000208181548110151561290057fe5b90600052602060002001600091509150505481565b600a6020528160005260406000208181548110151561290057fe5b6000805460ff161561298e576040805160e560020a62461bcd02815260206004820152602b60248201526000805160206137c883398151915260448201526000805160206137a8833981519152606482015290519081900360840190fd5b60408051606081018252858152602080820186905264ffffffffff851682840152336000908152600482529290922081518051929391926129d292849201906134a0565b5060208281015180516129eb92600185019201906134a0565b50604091909101516002909101805464ffffffffff191664ffffffffff90921691909117905550339392505050565b600080803381600160a060020a038216600090815260026020819052604090912081015460ff1690811115612a4b57fe5b14612ac6576040805160e560020a62461bcd02815260206004820152602560248201527f546869732075736572206973206e6f74207468652041646d696e696e6973747260448201527f61746f722e000000000000000000000000000000000000000000000000000000606482015290519081900360840190fd5b6003805486908110612ad457fe5b60009182526020909120600391820201549054600160a060020a0390911693508510612b70576040805160e560020a62461bcd02815260206004820152602960248201527f546869732070726f7370656374697665206d65726368616e7420646f6573206e60448201527f6f742065786973742e0000000000000000000000000000000000000000000000606482015290519081900360840190fd5b8491505b60035460001901821015612c28576003805460018701908110612b9357fe5b9060005260206000209060030201600386815481101515612bb057fe5b600091825260209091208254600390920201805473ffffffffffffffffffffffffffffffffffffffff1916600160a060020a039092169190911781556001808301548183015560028084018054612c1a938386019390821615610100026000190190911604613609565b505060019092019150612b74565b600380546000198101908110612c3a57fe5b600091825260208220600390910201805473ffffffffffffffffffffffffffffffffffffffff191681556001810182905590612c79600283018261354b565b50506003805490612c8e90600019830161367e565b5060408051600160a060020a038516815290517f6f099435d4864f564fd06b09e5c9e0e0ee3062e3bc55456332c450f3e4b4a2ee9181900360200190a150909392505050565b6003545b90565b6000612ce56136aa565b60005460ff1615612d42576040805160e560020a62461bcd02815260206004820152602b60248201526000805160206137c883398151915260448201526000805160206137a8833981519152606482015290519081900360840190fd5b336001600160a060020a038216600090815260026020819052604090912081015460ff1690811115612d7057fe5b14612dc5576040805160e560020a62461bcd02815260206004820152601c60248201527f546869732075736572206973206e6f742061204d65726368616e742e00000000604482015290519081900360640190fd5b600554825233602080840191825260408401878152606085018790526006805460018101808355600092909252865160049091027ff652222313e28459528d920b65115c16c04f3efc82aaedc97be59f3f377c0d3f810191825594517ff652222313e28459528d920b65115c16c04f3efc82aaedc97be59f3f377c0d4086018054600160a060020a039290921673ffffffffffffffffffffffffffffffffffffffff199092169190911790559151805191948794612ea9937ff652222313e28459528d920b65115c16c04f3efc82aaedc97be59f3f377c0d419092019201906134a0565b5060608201518051612ec59160038401916020909101906134a0565b505033600090815260076020908152604080832060058054825460018101845592865294849020909101939093559154825190815291517f0a560bb6ca8c140efe6ff9153e4e52f5f83ee2e9ecf1d62c7330f4747eb68b13945091829003019150a1505060058054600181019091559392505050565b336000818152600260208190526040822081015460ff1690811115612f5c57fe5b14612fd7576040805160e560020a62461bcd02815260206004820152602560248201527f546869732075736572206973206e6f74207468652041646d696e696e6973747260448201527f61746f722e000000000000000000000000000000000000000000000000000000606482015290519081900360840190fd5b506000805460ff19811660ff90911615179055565b6006805482908110612ffa57fe5b6000918252602091829020600491909102018054600180830154600280850180546040805161010096831615969096026000190190911692909204601f8101889004880285018801909252818452939650600160a060020a03909116949192918301828280156130ab5780601f10613080576101008083540402835291602001916130ab565b820191906000526020600020905b81548152906001019060200180831161308e57829003601f168201915b5050505060038301805460408051602060026001851615610100026000190190941693909304601f810184900484028201840190925281815294959493509083018282801561313b5780601f106131105761010080835404028352916020019161313b565b820191906000526020600020905b81548152906001019060200180831161311e57829003601f168201915b5050505050905084565b600080803381600160a060020a038216600090815260026020819052604090912081015460ff169081111561317657fe5b146131f1576040805160e560020a62461bcd02815260206004820152602560248201527f546869732075736572206973206e6f74207468652041646d696e696e6973747260448201527f61746f722e000000000000000000000000000000000000000000000000000000606482015290519081900360840190fd5b60038054869081106131ff57fe5b6000918252602080832060039283020154600160a060020a0316808452600291829052604090932001805460ff1916600117905554909350851061328d576040805160e560020a62461bcd02815260206004820152601a60248201527f54686973206f7264657220646f6573206e6f742065786973742e000000000000604482015290519081900360640190fd5b8491505b600354600019018210156133455760038054600187019081106132b057fe5b90600052602060002090600302016003868154811015156132cd57fe5b600091825260209091208254600390920201805473ffffffffffffffffffffffffffffffffffffffff1916600160a060020a039092169190911781556001808301548183015560028084018054613337938386019390821615610100026000190190911604613609565b505060019092019150613291565b60038054600019810190811061335757fe5b600091825260208220600390910201805473ffffffffffffffffffffffffffffffffffffffff191681556001810182905590613396600283018261354b565b505060038054906133ab90600019830161367e565b5060408051600160a060020a038516815290517fcbacbd3deeb7880bbd29b8eb031f76bef3c4d020bd93112c3c4d4db7a37a2cf09181900360200190a150909392505050565b600160a060020a031660009081526007602052604090205490565b6000808383111561341c57600080fd5b5050808203805b5092915050565b60008282018381101561343c57600080fd5b9392505050565b6000808315156134565760009150613423565b5082820282848281151561346657fe5b041461343c57600080fd5b6040805160a0810182526000808252606060208301529091820190815260200160008152602001600081525090565b828054600181600116156101000203166002900490600052602060002090601f016020900481019282601f106134e157805160ff191683800117855561350e565b8280016001018555821561350e579182015b8281111561350e5782518255916020019190600101906134f3565b506113b89291506136dc565b8154818355818111156135465760080281600802836000526020600020918201910161354691906136f6565b505050565b50805460018160011615610100020316600290046000825580601f10613571575061358f565b601f01602090049060005260206000209081019061358f91906136dc565b50565b610100604051908101604052806000815260200160008152602001600081526020016000600160a060020a031681526020016000600160a060020a031681526020016000815260200160008152602001600081525090565b6040805160608181018352600080835260208301529181019190915290565b828054600181600116156101000203166002900490600052602060002090601f016020900481019282601f10613642578054855561350e565b8280016001018555821561350e57600052602060002091601f016020900482015b8281111561350e578254825591600101919060010190613663565b81548183558181111561354657600302816003028360005260206000209182019101613546919061375f565b608060405190810160405280600081526020016000600160a060020a0316815260200160608152602001606081525090565b612cd891905b808211156113b857600081556001016136e2565b612cd891905b808211156113b8576000808255600182018190556002820181905560038201805473ffffffffffffffffffffffffffffffffffffffff199081169091556004830180549091169055600582018190556006820181905560078201556008016136fc565b612cd891905b808211156113b857805473ffffffffffffffffffffffffffffffffffffffff1916815560006001820181905561379e600283018261354b565b506003016137655600656e20747269707065642e000000000000000000000000000000000000000000456d657267656e6379206369726375697420627265616b657220686173206265a165627a7a72305820fe5046d348226be666b052f73ec0c3192405915c2bae75fecf4b6685cb9affb40029",
  "source": "pragma solidity ^0.4.24;\n\nimport \"./base/SafeMath.sol\";\n\n/**\n    @title BlockMarket\n    @dev This contract creates a blockchain-based online BlockMarket where users \n    can apply to become merchants and open their own stores.\n    @author Richard A. Serdici\n*/\ncontract BlockMarket {\n\n    // CONTRACT CIRCUIT BREAKER\n\n    bool private stopped = false;\n\n    // ADMIN INITIALIZED FLAG\n\n    bool public adminInitialized = false;\n\n    // USER VARIABLES\n\n    /** @dev Every user not an admin or merchant is a Shopper, even if anonymous \n        (no user account). The shopper role here provides the ability for a \n        shopper to register and save their shipping information, etc.\n    */\n    enum Role {\n        Admin,\n        Merchant,\n        Shopper \n    }\n    \n    /** @dev Increments with each new user and serves as unique key for each. \n    */\n    uint public userCount; \n\n    /** @dev Identified by userCount at time of registration (Admin's \n        userID = 1).\n    */\n    struct User {\n        uint userID;\n        string name;\n        Role role;\n        uint balance;\n        uint orderCount;\n    }\n\n    /** @dev Mapped from address.\n    */\n    mapping (address => User) public users;\n\n    /** @dev Shoppers who are applying to become merchants.\n    */\n    struct ProspectiveMerchant {\n        address prospectAddress;\n        uint userID;\n        string name;\n    }\n\n    /** @dev Array of applicants to become merchants.\n    */\n    ProspectiveMerchant[] public prospectiveMerchants;\n\n    /** @dev Optional shopper contact details including shipping address, email \n        and phone.\n    */\n    struct ContactDetail {\n        string shippingAddress;\n        string email;\n        uint40 phone;\n    }\n\n    /** @dev Mapped from address, like user account.\n    */\n    mapping (address => ContactDetail) public contactDetails;\n\n\n    // STORE VARIABLES\n\n    /** @dev Increments with each new store and serves as unique key for each. \n    */\n    uint public storeCount;\n\n    /** @dev Identified by storeCount at time of store opening. Includes owner's \n        userID for easy look up.\n    */\n    struct Store {\n        uint storeID;\n        address owner;\n        string title;\n        string description;\n    }\n    \n    /** @dev Mapped from storeID.\n    */\n    Store[] public stores;\n\n    /** @dev Store ownership array mapped to user address.\n    */\n    mapping (address => uint[]) public storeRegistry;\n\n    // PRODUCT VARIABLES\n    \n    /** @dev Increments with each new store and serves as unique key for each \n        product. \n    */\n    uint public skuCount;\n\n    /** @dev Identified by skuCount at time of product creation. Includes \n        storeID for easy look up. Images will be stored off-chain and source \n        path stored here.\n    */\n    struct Product {\n        uint sku;\n        uint storeID;\n        string title;\n        string description;\n        uint price;\n        uint shippingPrice;\n        string image; \n        uint16 stock;\n    }\n\n    /** @dev Mapped from sku.\n    */\n    mapping (uint => Product) public products;\n\n    /** @dev Products in a store, mapped to storeID\n    */\n    mapping (uint => uint[]) public productRegistry;\n\n\n    // ORDER VARIABLES\n\n    /** @dev Record of order for each product (combining quantities).\n    */\n    struct Order {\n        uint orderID;\n        uint sku;\n        uint storeID;\n        address buyer;\n        address seller;\n        uint quantity;\n        uint totalPrice;\n        uint timeStamp;\n    }\n\n    /** @dev Mapped from address, gives each merchant a dynamic array of product \n        orders.\n    */\n    mapping (address => Order[]) public orders;\n\n\n    // EVENTS\n\n    event adminSet (address adminAddress); \n    event merchantApproved (address merchantAddress); \n    event merchantRejected (address merchantAddress); \n    event storeOpened(uint storeID);\n    event productAdded(uint sku);\n    event orderPlaced(address buyerAddress, uint totalPrice);\n    event orderShipped(address buyerAddress, uint sku);\n    event withdrawalMade(address merchantAddress, uint amount, uint newBalance);\n\n\n    // MODIFIERS\n\n    modifier isBreakerTripped {        \n        require (stopped == false, \n            \"Emergency circuit breaker has been tripped.\"); \n        _;\n    }\n    modifier isAdmin(address _address) {\n        require (users[_address].role == Role.Admin, \n            \"This user is not the Admininistrator.\"); \n        _;\n    }\n    modifier isMerchant(address _address) {\n        require (users[_address].role == Role.Merchant, \n            \"This user is not a Merchant.\"); \n        _;\n    }\n    modifier isShopper(address _address) {\n        require ((users[_address].userID == 0) || \n            users[_address].role == Role.Shopper, \n            \"This user is not a Shopper.\"); \n        _;\n    }\n    modifier isStoreOwner(address _address, uint _storeID) {\n        require (stores[_storeID - 1].owner == msg.sender, \n            \"This user is not the store owner.\"); \n        _;\n    }\n    modifier isStore(uint _storeID) {\n        require (stores[_storeID - 1].storeID != 0, \n            \"This is not a valid store.\"); \n        _;\n    }\n    modifier isProduct(uint _sku) {\n        require (products[_sku].sku != 0, \n            \"This is not a valid product.\"); \n        _;\n    }\n    modifier isInStock(uint _sku) {\n        require (products[_sku].stock > 0, \n            \"This item is no longer in stock.\"); \n        _;\n    }\n    modifier sufficientFunds(address _address, uint _amount) {\n        require(_amount <= users[_address].balance, \n            \"This user does not have suffienct funds.\"); \n        _;\n    }\n\n\n    // CONSTRUCTOR\n\n    /** @dev Set counters to 1 because as solidity will effectively instantiate\n        variables to 0, check for not 0 as proof of true instantiation.\n    */\n    constructor() public {\n        userCount = 1;\n        storeCount = 1;\n        skuCount = 1;\n    }\n\n\n    // GETTER FUNCTIONS \n\n    /** @dev Calculate length of prospective merchants array\n        @return Returns length integer\n    */\n    function getNumberOfProspectiveMerchants() public view returns(uint) {\n        return prospectiveMerchants.length;\n    }\n    \n    /** @dev Calculate length of a specific user's stores array\n        @return Returns length integer\n    */\n    function getNumberOfStoresOwned(address _user) public view returns(uint) {\n        return storeRegistry[_user].length;\n    }\n\n    /** @dev Calculate length of a specific user's orders array\n        @return Returns length integer\n    */\n    function getNumberOfOrders(address _user) public view returns(uint) {\n        return orders[_user].length;\n    }\n\n\n    // ADMIN FUNCTIONS\n\n    /** @dev Set admin to first visitor\n        @return Returns true if first user\n    */\n    function setAdmin() public returns (bool) {\n        require(userCount == 1, \"There can be only one!\");\n        User memory _user;\n        _user.userID = userCount;\n        _user.name = \"BlockMarket Administrator\";\n        _user.role = Role.Admin;\n        _user.balance = 0;\n        _user.orderCount = 0;\n        users[msg.sender] = _user;\n        \n        adminInitialized = true;\n\n        emit adminSet(msg.sender);\n        userCount++;\n\n        return true;\n    }\n\n    /** @dev Toggle circuit breaker\n    */\n    function toggleCircuitBreaker() \n        public\n        isAdmin(msg.sender)\n    {\n        stopped = !stopped;\n    }\n\n    /** @dev Allows admin to approve a shopper's request to be a merchant.\n        @param prospectIndex Array index of shopper requesting to be merchant.\n        @return New merchant's address\n    */\n    function approveMerchant(uint prospectIndex) \n        public\n        isAdmin(msg.sender)\n        returns (address)\n    {\n        address _address = prospectiveMerchants[prospectIndex].prospectAddress;     \n\n        users[_address].role = Role.Merchant;\n\n        // Delete prospectiveMerchant and shift array\n        require(prospectIndex <  prospectiveMerchants.length, \n            \"This order does not exist.\");\n        for (uint i = prospectIndex; i < prospectiveMerchants.length - 1; i++) {\n            prospectiveMerchants[prospectIndex] = prospectiveMerchants[prospectIndex + 1];\n        }\n        delete prospectiveMerchants[prospectiveMerchants.length - 1];\n        prospectiveMerchants.length--;\n\n        emit merchantApproved(_address);\n        return _address;\n    }\n\n    /** @dev Allows admin to reject a shopper's request to be a merchant.\n        @param prospectIndex Array index of shopper requesting to be merchant.\n        @return Rejected merchant's address\n    */\n    function rejectMerchant(uint prospectIndex) \n        public\n        isAdmin(msg.sender)\n        returns (address)\n    {       \n        address _address = prospectiveMerchants[prospectIndex].prospectAddress; \n\n        // Delete prospectiveMerchant and shift array\n        require(prospectIndex <  prospectiveMerchants.length, \n            \"This prospective merchant does not exist.\");\n        for (uint i = prospectIndex; i < prospectiveMerchants.length - 1; i++) {\n            prospectiveMerchants[prospectIndex] = prospectiveMerchants[prospectIndex + 1];\n        }\n        delete prospectiveMerchants[prospectiveMerchants.length - 1];\n        prospectiveMerchants.length--;\n        \n        emit merchantRejected(_address); \n        return _address;\n    }\n\n\n    // MERCHANT FUNCTIONS\n\n    /** @dev Allows merchants to open new stores.\n        @param _title Store title\n        @param _description Store description\n        @return ID of new store\n    */\n    function openStore(\n        string _title,\n        string _description)\n        public \n        isBreakerTripped()\n        isMerchant(msg.sender)\n        returns (uint)\n    {\n        Store memory _store;\n        _store.storeID = storeCount;\n        _store.owner = msg.sender;\n        _store.title = _title;\n        _store.description = _description;\n\n        stores.push(_store);\n        \n        storeRegistry[msg.sender].push(storeCount);\n\n        emit storeOpened(storeCount);\n        storeCount++;\n        return storeCount - 1;\n    }\n\n    /** @dev Allows merchants to add new products.\n        @param _storeID ID of store product is in\n        @param _title Product title\n        @param _description Product description\n        @param _price Product price\n        @param _shippingPrice Product shipping price\n        @param _image Product image's source\n        @param _stock Product stock quantity\n        @return SKU of new product\n    */\n    function addProduct(\n        uint _storeID,\n        string _title, \n        string _description, \n        uint _price, \n        uint _shippingPrice, \n        string _image, \n        uint16 _stock) \n        public \n        isBreakerTripped()\n        isStoreOwner(msg.sender, _storeID)\n        returns (uint)\n    {\n        uint _sku = skuCount;\n\n        products[_sku] = Product({\n            sku: _sku,\n            storeID: _storeID,\n            title: _title,\n            description: _description,\n            price: _price,\n            shippingPrice: _shippingPrice,\n            image: _image,\n            stock: _stock});\n\n        productRegistry[_storeID].push(_sku);\n\n        emit productAdded(skuCount);\n        skuCount++;\n        return _sku;\n    }\n\n    /** @dev Allows merchants to edit their products. Like with contact details,\n        function recreates and replaces struct each time to keep logic simple \n        and avoid diff'ing.\n        @param sku Product SKU (key)\n        @param _storeID ID of store product is in\n        @param _title Product title\n        @param _description Product description\n        @param _price Product price\n        @param _shippingPrice Product shipping price\n        @param _image Product image's source\n        @param _stock Product stock quantity\n        @return SKU of edited product\n    */\n    function editProduct(\n        uint sku,\n        uint _storeID,\n        string _title, \n        string _description, \n        uint _price, \n        uint _shippingPrice, \n        string _image, \n        uint16 _stock) \n        public  \n        isBreakerTripped()\n        isProduct(sku) \n        isStoreOwner(msg.sender, products[sku].storeID)\n        returns (uint)\n    {\n        delete products[sku];\n        \n        products[sku] = Product({\n            sku: sku,\n            storeID: _storeID,\n            title: _title,\n            description: _description,\n            price: _price,\n            shippingPrice: _shippingPrice,\n            image: _image,\n            stock: _stock});\n\n        return sku;\n    } \n\n    /** @dev Allows merchants to remove their products.\n        @param sku Product SKU (key)\n        @return SKU of removed product\n    */\n    function removeProduct(\n        uint sku) \n        public \n        isBreakerTripped()\n        isProduct(sku) \n        isStoreOwner(msg.sender, products[sku].storeID)\n        returns (uint)\n    {\n        delete products[sku];\n        return sku;\n    }\n\n    /** @dev Allows merchants make withdrawals against their balances.\n        @param amount Amount to withdraw\n        @return New balance\n    */\n    function withdraw(uint amount) \n        public \n        payable \n        isBreakerTripped()\n        isMerchant(msg.sender)\n        sufficientFunds(msg.sender, amount) \n        returns (uint)\n    {\n        users[msg.sender].balance = SafeMath.sub(users[msg.sender].balance, amount);\n        msg.sender.transfer(amount);\n        emit withdrawalMade(msg.sender, amount, users[msg.sender].balance);\n        return users[msg.sender].balance;\n    }\n\n    /** @dev Allows merchants to mark orders as shipped.  This will also clear \n        the sales order from their queue.\n        @param orderIndex Index of specific order in respective user's own array\n        @return Buyer's address\n    */\n    function shipOrder(uint orderIndex) \n        public \n        isBreakerTripped()\n        returns (uint)\n    {\n        uint _orderID = orders[msg.sender][orderIndex].orderID;\n        \n        // Delete order and shift array\n        require(orderIndex <  orders[msg.sender].length, \n            \"This order does not exist.\");\n        for (uint i = orderIndex; i < orders[msg.sender].length - 1; i++) {\n            orders[msg.sender][orderIndex] = orders[msg.sender][orderIndex + 1];\n        }\n        delete orders[msg.sender][orders[msg.sender].length - 1];\n        orders[msg.sender].length--;\n\n        return _orderID;\n    }\n\n\n    // SHOPPER FUNCTIONS\n\n    /** @dev Allows anonymous shoppers to register so that they can save their \n        contact info.\n        @param _name User's name\n        @param _shippingAddress User's shipping address\n        @param _email User's email address\n        @param _phone User's phone number\n        @return True upon success\n    */\n    function registerAsShopper(\n        string _name, \n        string _shippingAddress, \n        string _email, \n        uint40 _phone) \n        public \n        isBreakerTripped()\n        returns (bool)\n    {\n        if (users[msg.sender].userID == 0) {\n\n            User memory _user;\n            _user.userID = userCount;\n            _user.name = _name;\n            _user.role = Role.Shopper;\n            _user.balance = 0;\n            _user.orderCount = 0;\n            users[msg.sender] = _user;\n\n            userCount++;\n        }\n        updateContactDetail(_shippingAddress, _email, _phone);\n\n        return true;\n    }\n\n    /** @dev Edits contact details. Data is short so function recreates and\n        replaces struct each time to keep logic simple and avoid diff'ing.   \n        @param _shippingAddress User's shipping address\n        @param _email User's email address\n        @param _phone User's phone number\n        @return Address of updated user\n    */\n    function updateContactDetail(\n        string _shippingAddress, \n        string _email, \n        uint40 _phone) \n        public \n        isBreakerTripped()\n        returns (address)\n    {\n        contactDetails[msg.sender] = ContactDetail({\n            shippingAddress: _shippingAddress,\n            email: _email,\n            phone: _phone});\n        return msg.sender;\n    }\n\n    /** @dev Allows shoppers, either anonymous or registered, to apply to become\n        merchants.\n        @param _name User's name\n        @return Success bool\n    */\n    function requestToBeMerchant(\n        string _name) \n        public\n        isBreakerTripped()\n        isShopper(msg.sender)\n        returns (bool)\n    {\n        if (users[msg.sender].userID == 0) {\n            \n            User memory _user;\n            _user.userID = userCount;\n            _user.name = _name;\n            _user.role = Role.Shopper;\n            _user.balance = 0;\n            _user.orderCount = 0;\n            users[msg.sender] = _user;\n\n            userCount++;\n        }\n        ProspectiveMerchant memory _ProspectiveMerchant;\n        _ProspectiveMerchant.prospectAddress = msg.sender;\n        _ProspectiveMerchant.userID = users[msg.sender].userID;\n        _ProspectiveMerchant.name = users[msg.sender].name;     \n        prospectiveMerchants.push(_ProspectiveMerchant);\n\n        return true;\n    }\n\n    /** @dev Each product generates a seperate order on check out (but with \n        quantites combined) so that they can be properly routed to respective\n        store owners. This provides for shoppers filling a cart and purchasing \n        items from multiple merchants at once. Will be called in a loop by \n        front-end for each product in cart.\n        @param _sku Product SKU (key)\n        @param _quantity Product quantity being purchased\n        @return Buyer's address, total price and seller's address\n    */\n    function placeOrder(\n        uint _sku,\n        uint _quantity) \n        public\n        payable\n        isBreakerTripped()\n        isProduct(_sku) \n        isInStock(_sku)\n        returns (address, uint, address)\n    {\n        // Find store product belongs to and owner of store in turn.\n        uint _storeID = products[_sku].storeID;\n        address _storeOwner = stores[_storeID - 1].owner;\n\n        // Calculate total price of order\n        uint _singleItemPrice = SafeMath.add(\n            products[_sku].price, \n            products[_sku].shippingPrice);\n        uint _totalPrice;\n        if(_quantity > 1) {\n            _totalPrice = SafeMath.mul(\n            _singleItemPrice, \n            _quantity);\n        } else {\n            _totalPrice = _singleItemPrice;\n        }\n\n        // Make actual payment\n        msg.sender.transfer(_totalPrice);\n        users[_storeOwner].balance = SafeMath.add(\n            users[_storeOwner].balance, _totalPrice);\n\n        users[_storeOwner].orderCount++;\n\n        // Place order\n        Order memory _order;\n        _order.orderID = users[_storeOwner].orderCount;\n        _order.sku = _sku;\n        _order.storeID = _storeID;\n        _order.buyer = msg.sender;\n        _order.seller = _storeOwner;\n        _order.quantity = _quantity;\n        _order.totalPrice = _totalPrice;\n        _order.timeStamp = now;\n\n        orders[_storeOwner].push(_order);\n\n        emit orderPlaced(msg.sender, _totalPrice);\n        return (msg.sender, _totalPrice, _storeOwner);\n    }\n\n    /** @dev Payable fallback\n    */\n    function() public payable {\n    }\n}\n",
  "sourcePath": "/Users/ras/Documents/Consensys/blockmarket/contracts/BlockMarket.sol",
  "compiler": {
    "name": "solc",
    "version": "0.4.24+commit.e67f0147.Emscripten.clang"
  },
  "schemaVersion": "2.0.1",
  "updatedAt": "2018-08-27T19:08:20.366Z"
}